:1000000000308A001F2C0000FF00030E8301A100B6
:100010007F08A0000A08A8008A01A00E0408A20018
:100020007708A3007808A4007908A5007A08A6003C
:100030007B08A700831383128B1E20280B198028AE
:100040008B1D24280B183D288C308400801C2A2806
:100050008C181E2A220884002308F7002408F800C0
:100060002508F9002608FA002708FB0028088A005E
:10007000210E8300FF0E7F0E09000030061B0130A9
:10008000DF0000302F1801305F0203194B288B115D
:10009000F03081000B110B108A112A288030EA0001
:1000A000E9016908073C031C612805116A08680515
:1000B000003A031D0515051405106A0CEA0CE90A3F
:1000C000512800346508FA01E60065080039FA0095
:1000D0006408E7002030650085110630E8004E20F6
:1000E000851585110230E8004E206608E8004E2094
:1000F0006708E8004E206308E8004E2085150034AC
:10010000E03081000B113008073C031DA4282F1597
:1001100002303A02B6003B08B7000030031C013041
:10012000B7023608FE3C031D9B28370F9B2807307B
:10013000B700FE30B600360FA328370FA3280730CC
:10014000B700FF30B6001B2AAF18C8280130E00006
:100150000030061B0130E10000302F180130610231
:100160000319BF28B0013008E00000302F1C013017
:10017000F8007818BD282F10BE282F14C028B00A08
:10018000E008031DC5280310C6280314AD0CAE0AF1
:10019000AF1CE528AF100030061B0130E100003035
:1001A0002F18013061020319E028B00100302F1C24
:1001B0000130F8007818DE282F10DF282F14E528EA
:1001C000B00A0314AD0CAE0AAF153008053C031994
:1001D000AF142E08083C031D1A2A33080C3C0318E0
:1001E000B30A2D087E3C031DF9283308023C03188E
:1001F000B3012D087E3C031D6629AF1D6629330817
:100200000B3C03186629FF30B206B1062C083102F8
:10021000031D0E292B083202031913293B08B700CE
:100220003A08B6006229B40A3708FA003608B60A56
:100230000319B70AE1007A08E200C030E3007A0847
:10024000E5006108E4006220B608031D2D29370887
:10025000083C031D2D29B701B6013708FA003608FE
:10026000B60A0319B70AE1007A08E200C030E300D9
:100270007A08E5006108E4006220B608031D4629FB
:100280003708083C031D4629B701B6013708FA00B4
:100290003608B60A0319B70AE1007A08E200E3015A
:1002A0007A08E5006108E4006220B608031D5E29B3
:1002B0003708083C031D5E29B701B6013708BB00AB
:1002C0003608BA00FF30B100B200B3012D087E3C01
:1002D000031D6C29AF19162A3308023C0318122A91
:1002E0002C08C03A031978291B3A0319AB29DE29D7
:1002F0003708FA003608B60A0319B70AE1007A0887
:10030000E200DB30E3006208E5006108E4006220FF
:10031000B608031D91293708083C031D9129B70130
:10032000B6013708FA003608B60A0319B70AE10021
:100330007A08E200DC30E3006208E5006108E400CE
:100340006220B608031DAA293708083C031DAA2904
:10035000B701B601F7293708FA003608B60A0319BB
:10036000B70AE1007A08E200DB30E3006208E5004A
:100370006108E4006220B608031DC4293708083C60
:10038000031DC429B701B6013708FA003608B60ABA
:100390000319B70AE1007A08E200DD30E3006208E1
:1003A000E5006108E4006220B608031DDD29370876
:1003B000083C031DDD29B701B601F7293708FA000B
:1003C0003608B60A0319B70AE1007A08E2002C08D9
:1003D000E3007A08E5006108E4006220B608031D26
:1003E000F7293708083C031DF729B701B6012C0887
:1003F000E100E2016208073C031C122A610801398E
:10040000E3000310B20CB10C030801396306013C90
:10041000031D0E2A8430B2060830B106610CE10CCF
:10042000E20AFA292B08AC002D08AB00AE012E0819
:10043000AD00AF118B150B118A112A28C60A460888
:1004400045020318412AED010108EC00EC1F2A2A9D
:100450000130ED00EC1E2E2A0130ED066C1E322A12
:100460000130ED066C1D362A0130ED060310EC0D4F
:100470006D08EC046C08F80044087802031C43146F
:10048000C6018C108C108A112A28523084008313E4
:1004900000080319582A0630F800F701F70B4E2A16
:1004A000F80B4D2A7B30F700F70B542A800B4B2AB0
:1004B00000348C1E592A1808AA001A08F800AA1C31
:1004C000632A1812181600000034061086118612CE
:1004D000B5010830BD00BC013D08BF003C08BE00AE
:1004E000AF12D1015108093C031C7C2A0A30D2000A
:1004F00045226400D10A722A8C1E8D2A592278085E
:10050000D000D1015108183C031C8C2A0A30D200BB
:1005100045226400D10A822A7C2A00345508FA0157
:10052000D80055080039FA005408D9002030650079
:100530008511A9018B1BA9178B130330E8004E20EE
:10054000A91B8B17A9018B1BA9178B135808E8004F
:100550004E20A91B8B17A9018B1BA9178B135908B8
:10056000E8004E20A91B8B1724306500D601D70167
:100570005708073C031CC42A05140519D60A0510A0
:10058000560DD60DD70AB82A560CD60C8515560826
:10059000F80000340C1EFB2AB4080319FB2A0B13C5
:1005A0008B138B1BD02A3908FA003808B80A0319B4
:1005B000B90ACD007A08CE00D5004D08D4008E22AD
:1005C0007808CC00B808031DEB2A3908083C031D45
:1005D000EB2AB901B801C0308B044C08C03C031DA4
:1005E000F72A2F1EF62A2F12B403F72A2F164C08CB
:1005F0000C1EF82A990000348C1E5F2B59227808B3
:10060000D3005308C03C031D372B0B138B138B1BDC
:10061000062B3D08FA003C08BC0A0319BD0AD400A9
:100620007A08D500A9018B1BA9178B135308E30087
:100630007A08E5005408E4006220A91B8B17BC0867
:10064000031D292B3D08203C031D292B0830BD002C
:10065000BC01C0308B04AF1AB50A0030AF1E0130A8
:10066000F8007818352BAF12362BAF165F2BAF1E64
:100670005F2B0B138B138B1B3A2B3D08FA003C08A6
:10068000BC0A0319BD0AD4007A08D500A9018B1B46
:10069000A9178B135308E3007A08E5005408E40017
:1006A0006220A91B8B17BC08031D5D2B3D08203C55
:1006B000031D5D2B0830BD00BC01C0308B0400342D
:1006C0003F08FA003E08BE0A0319BF0AD2007A08A2
:1006D000D300D5005208D4008E227808D100BE087D
:1006E000031D792B3F08203C031D792B0830BF00E8
:1006F000BE015008023C03197F2B0030802B0130D3
:10070000D200D1080319862B0030872B0130520507
:10071000003A03198D2B0130D100500883169B003D
:100720008312510883169A001C1583120B08F700D8
:100730008B13831655309D00AA309D009C149C1885
:100740009F2B1C11770883128B045008023C031D59
:10075000AB2B5108C4005008033C031DB12B5108BA
:10076000C5000034F701F801510803105218F707CB
:10077000F70CF80CD218F707F70CF80C5219F7071A
:10078000F70CF80CD219F707F70CF80C521AF70708
:10079000F70CF80CD21AF707F70CF80C521BF707F6
:1007A000F70CF80CD21BF707F70CF80C002E6400BE
:1007B000D1015108073C031C1E2C50080139D200FE
:1007C00001081F3C031CE62BFC22E02B1230F70033
:1007D000F70BE82B8101AF1BFE2B2F1BFE2B5208C2
:1007E000D3000310C00CC10C030801395306013CAF
:1007F000031DFE2B8430C0060830C106D208031D3D
:10080000052CC201083086061A2CC20A2F1B1A2C8E
:100810004208053C031D1A2C01081F3C031C122C26
:10082000FC220C2C1230F700F70B142C8101C201B2
:1008300008308606500CD00CD10AD92B0034840124
:1008400083131F30830507309F00FF308316990004
:1008500022309800903083129800AA01AF112F1215
:10086000AF1243101E30C4000A30C500C601481440
:1008700007309F0083160508003985001030F70007
:10088000F70B402C000083121F080C13203065006A
:10089000C2306600051606108616061685150A3043
:1008A000D20045220612861283168113003083126D
:1008B000851A0130C9000030861B0130003A031947
:1008C000632C0030642C01304905003A03196E2C6A
:1008D000FF3083169900223098008312851E782CF1
:1008E000861B782C403083169900223098008312A2
:1008F000851A822C861F822C81308316990026301F
:10090000980083120030851A0130C9000030861B20
:100910000130013C03198E2C00308F2C0130490529
:10092000003A0319992C403083169900263098001C
:1009300083127830F80006389200C3308316920094
:100940008312B5013508B4000630F700F71DB12C4D
:10095000073081018130840083130008C0390F38CB
:1009600080006400813084000008C0397704800072
:10097000B901B8013908B7003808B600BB01023028
:10098000BA000830BF00BE013F08BD003E08BC00F1
:100990006522023083169B009C131C141A088312D4
:1009A000C400033083169B009C131C141A08831286
:1009B000C500C0308B04003048180130013C031DD5
:1009C000F82EFF30B200B100AF102F11B301330881
:1009D000AE00AD00B0003708FA003608B60A0319B9
:1009E000B70AC9007A08CA00A9018B1BA9178B1383
:1009F000C030E3007A08E5004908E4006220A91B42
:100A00008B17B608031D0A2D3708083C031D0A2D55
:100A1000B701B6013708FA003608B60A0319B70A53
:100A2000C9007A08CA00A9018B1BA9178B13E3011F
:100A30007A08E5004908E4006220A91B8B17B60874
:100A4000031D282D3708083C031D282DB701B601CA
:100A5000CB010030061B0130F8007818312D2F1023
:100A6000322D2F140030061B0130CC0000302F181F
:100A700001304C02031D402DCA22FC226400322D9D
:100A8000810100302F1C0130F8007818492D2F10FB
:100A90004A2D2F14B5080319502D83168C14831278
:100AA0000030061B0130CC0000302F1801304C0202
:100AB000031D992ECA22FC226400431C982E4F105D
:100AC000CF14B5080319902EC201AF13FF30C00038
:100AD000C10086163F08FA003E08BE0A0319BF0A85
:100AE000D0007A08D100D5005008D4008E227808B2
:100AF000CD00BE08031D832D3F08203C031D832D20
:100B00000830BF00BE013F08FA003E08BE0A0319C4
:100B1000BF0AD0007A08D100D5005008D4008E2238
:100B20007808CD00BE08031D9C2D3F08203C031D06
:100B30009C2D0830BF00BE014D08023C031DA32DB3
:100B40000230D00060234D08033C031DAA2D033062
:100B5000D00060234D08063C031DC62D02308316CD
:100B60009B009C131C141A088312D00003308316B8
:100B70009B009C131C141A088312D10050080C1EF1
:100B8000BF2D990051080C1EC32D9900CD080319E3
:100B900006144D08063C0318D02D06106522982E29
:100BA000CF1C162E02309F008316050803388500DF
:100BB0001030F700F70BDA2D000083121F080C131A
:100BC000D00150080F3C031CEF2D5008A038D10075
:100BD00083169F0083129F1BEF2DD00AE12D073053
:100BE0009F00831605081030F700F70BF52D000065
:100BF00083121F080C130530D1005008D200B22B0D
:100C000078087808CE002F178101CC014E084C02DD
:100C100003180E2ED001D723CC0A062E7E30D0002A
:100C2000D7237E30D000D7232F13CF103F08FA00F0
:100C30003E08BE0A0319BF0AD0007A08D100D500C9
:100C40005008D4008E227808CD00BE08031D2F2E38
:100C50003F08203C031D2F2E0830BF00BE014D0869
:100C6000C03C03197B2E4D08DB3A03193E2E073A90
:100C70000319402E013A03194F2E5E2E4F14612E98
:100C800000304F180130013C031D4B2EC030D00006
:100C9000D7234F104E2EDC30D000D723612E0030EA
:100CA0004F180130013C031D5A2EDB30D000D723F2
:100CB0004F105D2EDD30D000D723612E4D08D000BF
:100CC000D7233F08FA003E08BE0A0319BF0AD00026
:100CD0007A08D100D5005008D4008E227808CD00C3
:100CE000BE08031D7A2E3F08203C031D7A2E0830D3
:100CF000BF00BE012F2EAF17FF30C106C00641084E
:100D0000D000D7234008D000D7232F17AF137E3051
:100D1000D000D7237E30D000D7232F13B503612D09
:100D200006108611861283168C108312C60143109A
:100D3000502D0108C900810100302F1C0130F8003E
:100D40007818A42E2F10A52E2F1449081D3C031827
:100D5000AF2E4908223C031CAF2ECA0ABB2E4908FD
:100D6000DD3C0318BA2E4908E93C031CBA2E0330B7
:100D7000CA07BB2ECA014A08043C03184A2D831631
:100D80008C108312C60143100030061B0130CC00CA
:100D900000302F1801304C02031DD22ECA22FC2233
:100DA0006400C42E0108C900810100302F1C0130ED
:100DB000F8007818DD2E2F10DE2E2F144908D13CB4
:100DC0000318C42E0512CF3081000B1128308B047C
:100DD0002F19EE2ECA22FC226400E82E0516C50843
:100DE0000319F52E43109101C601D7308B05DB2C7A
:020DF00063009E
:02400E00023F6F
:00000001FF
;PIC16F628A
